:100000000C9462000C9460040C9439040C948A00E3
:100010000C948A000C948A000C948A000C948A0038
:100020000C948A000C948A000C948A000C948A0028
:100030000C948A000C948A000C948A000C948A0018
:100040000C94EF030C948A000C94BD030C9497035A
:100050000C948A000C948A000C948A000C948A00F8
:100060000C948A000C948A000000000023002600F3
:10007000290000000000240027002A0000000000E2
:10008000250028002B0004040404040404040202D4
:100090000202020203030303030301020408102007
:1000A0004080010204081020010204081020000012
:1000B0000008000201000003040700000000000027
:1000C0000000620511241FBECFEFD8E0DEBFCDBF18
:1000D00011E0A0E0B1E0ECE7FBE002C005900D927A
:1000E000AA36B107D9F723E0AAE6B1E001C01D9214
:1000F000A231B207E1F710E0C2E6D0E004C02197D8
:10010000FE010E94B105C136D107C9F70E948704DC
:100110000C94BC050C940000CF92DF92EF92FF92FA
:100120000F931F93CF93DF936C017A018B01C0E093
:10013000D0E0CE15DF0581F0D8016D918D01D6019B
:10014000ED91FC910190F081E02DC6010995892B7C
:1001500011F02196EECF7E01C701DF91CF911F9163
:100160000F91FF90EF90DF90CF900895089580E079
:1001700090E00895FC01538D448D252F30E0842FAD
:1001800090E0821B930B541710F0CF9608950197BF
:100190000895FC01918D828D981761F0828DDF01A9
:1001A000A80FB11D5D968C91928D9F5F9F73928F6A
:1001B00090E008958FEF9FEF0895FC01918D828D5F
:1001C000981731F0828DE80FF11D858D90E008952C
:1001D0008FEF9FEF0895FC01918D228D892F90E084
:1001E000805C9F4F821B91098F739927089585E743
:1001F00092E00E94EB0021E0892B09F420E0822F9D
:100200000895FC01848DDF01A80FB11DA35ABF4FD3
:100210002C91848D90E001968F739927848FA68905
:10022000B7892C93A089B1898C91837080648C9359
:10023000938D848D981306C00288F389E02D808108
:100240008F7D80830895EF92FF920F931F93CF933A
:10025000DF93EC0181E0888F9B8D8C8D981305C016
:10026000E889F989808185FD26C0F62E0B8D10E086
:100270000F5F1F4F0F731127E02E8C8DE8120CC0FB
:100280000FB607FCFACFE889F989808185FFF5CFA1
:10029000CE010E940101F1CF8B8DFE01E80FF11D0F
:1002A000E35AFF4FF0829FB7F8940B8FEA89FB89DE
:1002B000808180620AC09FB7F894EE89FF896083CD
:1002C000E889F98980818370806480839FBF81E0A1
:1002D00090E0DF91CF911F910F91FF90EF900895E3
:1002E000CF93DF93EC01888D8823C9F0EA89FB89DD
:1002F000808185FD05C0A889B9898C9186FD0FC0D4
:100300000FB607FCF5CF808185FFF2CFA889B989A8
:100310008C9185FFEDCFCE010E940101E7CFDF91E7
:10032000CF91089580E090E0892B29F00E94F7009A
:1003300081110C9400000895833081F028F48130FD
:1003400099F08230A1F008958730A9F08830B9F093
:100350008430D1F4809180008F7D03C08091800033
:100360008F7780938000089584B58F7702C084B51D
:100370008F7D84BD08958091B0008F7703C08091F8
:10038000B0008F7D8093B00008951F93CF93DF93CB
:10039000E8EBF0E09491E4EAF0E0D491E0E9F0E0F9
:1003A000C491CC23D1F0182F992319F0892F0E94E2
:1003B0009C01EC2FF0E0EE0FFF1FE458FF4FA591DA
:1003C000B4919FB7F894111104C08C91D095D823A3
:1003D00002C0EC91DE2BDC939FBFDF91CF911F9188
:1003E0000895CF93DF9390E0FC01E656FF4F2491F0
:1003F000FC01EA57FF4F8491882361F190E0880F58
:10040000991FFC01EE58FF4FC591D491FC01E458AF
:10041000FF4FA591B491611109C09FB7F8948881ED
:10042000209582238883EC912E230BC0623061F4E7
:100430009FB7F8948881322F309583238883EC917D
:100440002E2B2C939FBF06C08FB7F894E8812E2BDC
:1004500028838FBFDF91CF9108953FB7F8948091A3
:10046000710290917202A0917302B091740226B54C
:10047000A89B05C02F3F19F00196A11DB11D3FBFDC
:10048000BA2FA92F982F8827820F911DA11DB11D6A
:10049000BC01CD0142E0660F771F881F991F4A9566
:1004A000D1F708958F929F92AF92BF92CF92DF9231
:1004B000EF92FF926B017C010E942D024B015C01C7
:1004C000C114D104E104F104F1F00E942D02DC0119
:1004D000CB0188199909AA09BB09883E9340A10557
:1004E000B10570F321E0C21AD108E108F10888EEE5
:1004F000880E83E0981EA11CB11CC114D104E10434
:10050000F10419F7DDCFFF90EF90DF90CF90BF900F
:10051000AF909F908F900895089581E00E94C5014B
:1005200062E070E080E090E00C945202CF92DF92A3
:10053000EF92FF920F931F93CF93DF9380E58CBDD3
:100540001DBC80E00E94C501CAEBD0E006EA10E0C5
:1005500092E9E92E90E0F92EFE018491F801C49011
:10056000F701D490D1100EC062E070E080E090E01E
:10057000DF91CF911F910F91FF90EF90DF90CF907F
:100580000C94520281110E949C01ED2DF0E0EE0FBF
:10059000FF1FE859FF4FA591B4918C918C2121F355
:1005A000DBCF8EBD00000DB407FEFDCF8EB50895E4
:1005B000CF93DF93EC010E94960288810E94D102C2
:1005C000C82F0E948D028C2FDF91CF910895009744
:1005D00069F0FC0101900020E9F73197AF01481B59
:1005E000590BBC0185E792E00C948C0080E090E010
:1005F00008958F929F92AF92BF920F931F93CF93C4
:10060000DF93CDB7DEB7A1970FB6F894DEBF0FBE6C
:10061000CDBF19A2423008F44AE08E010F5D1F4F92
:10062000842E912CA12CB12CA50194010E948F0540
:10063000E62FB901CA0101501109EA3014F4E05D56
:1006400001C0E95CD801EC93232B242B252B61F707
:10065000C8010E94E702A1960FB6F894DEBF0FBE54
:10066000CDBFDF91CF911F910F91BF90AF909F9021
:100670008F9008950E94B7051F93CF93DF930E9438
:1006800096028BEF0E94D10280E00E94D102182FC7
:100690000E948D028AE591E00E94E702612F70E0DE
:1006A00080E090E04AE00E94F90283E691E00E9437
:1006B000E7020E9496028FEF0E94D102D0E0D1178C
:1006C00081F0C0916B0181E08C0F80936B0180E021
:1006D0000E94D102EC2FF0E0E459FE4F8083DF5FEF
:1006E000EECF0E948D02E0916A0180916B01E817C4
:1006F00079F081E08E0F80936A01F0E0E459FE4FBB
:10070000608170E080E090E040E10E94F902EBCF70
:1007100086E691E00E94E70288E591E00E94D80217
:1007200086E191E0DF91CF911F910C94D8021F9246
:100730000F920FB60F9211242F933F934F935F9315
:100740006F937F938F939F93AF93BF93EF93FF9399
:1007500085E792E00E940101FF91EF91BF91AF9177
:100760009F918F917F916F915F914F913F912F91C9
:100770000F900FBE0F901F9018951F920F920FB6FB
:100780000F9211242F938F939F93EF93FF93E091F8
:100790008502F09186028081E0918B02F0918C02BB
:1007A00082FD12C0908180918E028F5F8F732091A5
:1007B0008F02821751F0E0918E02F0E0EB58FD4F6E
:1007C000958F80938E0201C08081FF91EF919F9160
:1007D0008F912F910F900FBE0F901F9018951F9221
:1007E0000F920FB60F9211242F933F938F939F93E5
:1007F000AF93BF9380916D0290916E02A0916F02B2
:10080000B091700230916C0223E0230F2D3720F459
:100810000196A11DB11D05C026E8230F0296A11D5A
:10082000B11D20936C0280936D0290936E02A09391
:100830006F02B09370028091710290917202A09148
:100840007302B09174020196A11DB11D80937102D3
:1008500090937202A0937302B0937402BF91AF9110
:100860009F918F913F912F910F900FBE0F901F90EE
:1008700018951F920F920FB60F9211242F933F934A
:100880004F935F936F937F938F939F93AF93BF9398
:10089000EF93FF93E0910201F09103010995FF911D
:1008A000EF91BF91AF919F918F917F916F915F91E8
:1008B0004F913F912F910F900FBE0F901F90189561
:1008C0001F920F920FB60F9211242F933F934F93C5
:1008D0005F936F937F938F939F93AF93BF93EF93A8
:1008E000FF93E0910001F09101010995FF91EF91D3
:1008F000BF91AF919F918F917F916F915F914F9138
:100900003F912F910F900FBE0F901F9018957894E4
:1009100084B5826084BD84B5816084BD85B5826004
:1009200085BD85B5816085BD80916E0081608093B5
:100930006E0010928100809181008260809381001E
:10094000809181008160809381008091800081602E
:10095000809380008091B10084608093B100809189
:10096000B00081608093B00080917A0084608093B1
:100970007A0080917A00826080937A0080917A0078
:10098000816080937A0080917A00806880937A00F9
:100990001092C100E0918502F091860282E080838E
:1009A000E0918502F09186021082E0918102F0913F
:1009B00082021082E0918302F091840280E18083C0
:1009C00010928D02E0918902F0918A0286E0808384
:1009D000E0918702F0918802808180618083E091BC
:1009E0008702F0918802808188608083E09187028D
:1009F000F0918802808180688083E0918702F09185
:100A0000880280818F7D808361E08AE00E94F1010D
:100A100081E00E94C50161E08BE00E94F10160E08D
:100A20008CE00E94F10161E08DE00E94F10160E044
:100A300083E00E94F10160E082E00E94F10189E51B
:100A400091E00E94D80288E591E00E94D80287E5F3
:100A500091E00E94D802C7E1D1E00E94960288810D
:100A60000E94D10289810E94D1020E948D022296A9
:100A700081E0C735D80789F70E9496028EE70E9469
:100A8000D10280E00E94D10280E60E94D1020E9441
:100A90008D028CE393E0909301018093000180919B
:100AA0006900836080936900E89A86E191E00E9482
:100AB000D80268EE73E080E090E00E9452020E944B
:100AC0009201F7CFE5E7F2E01382128288EE93E01D
:100AD000A0E0B0E084839583A683B78388E091E0AB
:100AE0009183808385EC90E09587848784EC90E007
:100AF0009787868780EC90E0918B808B81EC90E0EB
:100B0000938B828B82EC90E0958B848B86EC90E0CB
:100B1000978B868B118E128E138E148E0895A1E200
:100B20001A2EAA1BBB1BFD010DC0AA1FBB1FEE1F67
:100B3000FF1FA217B307E407F50720F0A21BB30BB2
:100B4000E40BF50B661F771F881F991F1A9469F72E
:100B500060957095809590959B01AC01BD01CF018A
:100B60000895EE0FFF1F0590F491E02D099481E0A8
:0C0B700090E0F8940C94BC05F894FFCFC2
:100B7C008C028C020000000023018C00BA00700172
:100B8C00EB00C900DD003400010200034F04FF0537
:100B9C00FF063E072008000B060D100EB00F3F108D
:100BAC00C7113212B0132014001504181819161B93
:100BBC00071C0020FB21B6221123E9242A2500263C
:100BCC001F2C812D352E093B3A3072785F66696691
:0A0BDC006F5B005D20000D0A0000B1
:00000001FF
